S0220000687474703A2F2F737265636F72642E736F75726365666F7267652E6E65742F1D
S123000000040020810A000015070000610A00001F07000029070000330700000000000016
S1230020000000000000000000000000A50A00003D07000000000000470700005107000023
S12300405B070000650700006F07000079070000830700008D07000097070000A107000074
S1230060AB070000B5070000BF070000C9070000D3070000DD070000E7070000F1070000D4
S1230080FB070000050800000F08000019080000230800002D08000037080000410800002D
S12300A04B080000550800005F08000069080000730800007D08000087080000910800008C
S12300C09B080000A5080000AF080000B9080000C3080000CD080000D7080000E1080000EC
S12300E0EB080000F5080000FF08000009090000130900001D090000270900003109000047
S12301003B0900001FB500F003F88DE80F001FBD00F0ACBC40F6FC7108684FF01022401C40
S123012008D00868401C09D00868401C04D0086800F037BA9069F5E79069F9E7704770B5C3
S12301400B46010B184400F6FF70040B4FF080500022090303692403406943431D1B1046E1
S123016000F048FA29462046BDE8704000F042BAF0B54FF6FF734FF4B4751A466E1E11E08E
S1230180A94201D3344600E00C46091B30F8027B641E3B441A44F9D19CB204EB134394B225
S12301A004EB12420029EBD198B200EB134002EB124140EA0140F0BDF34992B00446D1E9B1
S12301C00001CDE91001FF224021684600F0F4FB94E80F008DE80F00684610A902E004C820
S12301E041F8042D8842FAD110216846FFF7C0FF1090AA208DF8440000F099F9FFF78AFF34
S123020040F6FC7420684FF01025401C0FD0206810226946803000F078F92068401C08D0C7
S12302202068082210A900F070F900F061F9A869EEE7A869F5E74FF080500369406940F67F
S1230240FC71434308684FF01022401C06D0086800F58050834203D2092070479069F7E70E
S12302600868401C04D00868401C03D0002070479069F9E70420704770B504460068C34DC9
S1230280072876D2DFE800F033041929631E2500D4E9026564682946304600F062F92A467D
S12302A02146304600F031F9AA002146304600F057FB002800D0032070BD00F009FC4FF4FA
S12302C0805007E0201D00F040F90028F4D100F0FFFB60682860002070BD241D94E80700C5
S12302E0920000F03DFB0028F6D00E2070BDFFF7A2FF0028FAD1D4E901034FF0805100EBB1
S1230300830208694D69684382420ED840F6F87005684FF010226D1C09D0056805EB830515
S12303200B6949694B439D4203D9092070BD5569F4E70168491C03D00068401C02D003E041
S12303405069FAE70F2070BD2046FFF735FFFFF772FF0028F7D1201D00F0F7F80028F2D1B5
S123036060680028F0D100F0E2F8FFF7D3FE00F0BFF8072070BD10B50C46182802D00120F2
S1230380086010BD2068FFF777FF206010BD4168054609B1012700E0002740F6F8742068DC
S12303A04FF01026401C2BD02068AA68920000F0D7FA38B3A86881002068401C27D02068A1
S12303C0FFF7BDFED7B12068401C22D026684FF08050AC686D68016942695143A9420DD90A
S12303E0016940694143A14208D92146304600F0B8F822462946304600F087F800F078F805
S12304007069D2E700F093F8FFF784FEF6E77069D6E77669DBE740F6FC7420684FF010269C
S1230420401C23D02068401C0CD02068401C1FD02568206805F18005401C1BD027683879BF
S1230440AA2819D040F6F8700168491C42D00168491C45D00168491C3ED001680968491C61
S12304603ED00168491C39D000683EE0B069DAE7B569DEE7B769E2E710212846FFF778FE5C
S12304803968814222D12068401C05D0D4F8001001F18002C03107E0B169F9E730B108CA73
S12304A051F8040D984201D1012000E000208A42F4D158B1286810B1042803D0FEE72846D4
S12304C0FFF765FF3149686808600EE0FFF722FE00F00EF87169BBE77169BFE7706904E059
S12304E04FF480500168491C01D000F0CBFAFEE7BFF34F8F26480168264A01F4E06111434B
S12305000160BFF34F8F00BFFDE72DE9F04117460D460646002406E03046296800F054F8B3
S1230520641C2D1D361DBC42F6D3BDE8F08140F6FC700168491C04D0D0F800004FF480519D
S1230540FDE54FF010208069F8E74FF080510A69496900684A43824201D8102070470020B0
S1230560704770B50C4605464FF4806608E0284600F017F8B44205D3A4F5806405F5805566
S1230580002CF4D170BD0000F40A0000000000200CED00E00400FA05144801680029FCD085
S12305A07047134A0221116010490B68002BFCD00F4B1B1D186008680028FCD000201060CE
S12305C008680028FCD07047094B10B501221A60064A1468002CFCD0016010680028FCD0B5
S12305E00020186010680028FCD010BD00E4014004E5014070B50C46054600F073F810B9F1
S123060000F07EF828B121462846BDE8704000F007B821462846BDE8704000F037B80000B5
S12306207FB5002200920192029203920A0B000B6946012302440AE0440900F01F0651F844
S1230640245003FA06F6354341F82450401C8242F2D80D490868009A10430860081D016871
S1230660019A1143016000F03DF800280AD0064910310868029A10430860091D0868039A75
S1230680104308607FBD00000006004030B50F4C002200BF04EB0213D3F800582DB9D3F820
S12306A0045815B9D3F808581DB1521C082AF1D330BD082AFCD204EB0212C2F80008C3F842
S12306C004180220C3F8080830BD000000E001404FF08050D0F83001082801D0002070471F
S12306E0012070474FF08050D0F83011062905D0D0F83001401C01D000207047012070472D
S12307004FF08050D0F830010A2801D0002070470120704708208F490968095808471020CA
S12307208C4909680958084714208A49096809580847182087490968095808473020854950
S1230740096809580847382082490968095808473C20804909680958084740207D49096853
S12307600958084744207B49096809580847482078490968095808474C2076490968095835
S12307800847502073490968095808475420714909680958084758206E490968095808471A
S12307A05C206C4909680958084760206949096809580847642067490968095808476820B3
S12307C064490968095808476C20624909680958084770205F4909680958084774205D495C
S12307E009680958084778205A490968095808477C2058490968095808478020554909686B
S12308000958084784205349096809580847882050490968095808478C204E49096809584C
S1230820084790204B49096809580847942049490968095808479820464909680958084731
S12308409C204449096809580847A0204149096809580847A4203F49096809580847A8208A
S12308603C49096809580847AC203A49096809580847B0203749096809580847B42035499B
S1230880096809580847B8203249096809580847BC203049096809580847C0202D49096882
S12308A009580847C4202B49096809580847C8202849096809580847CC2026490968095864
S12308C00847D0202349096809580847D4202149096809580847D8201E4909680958084749
S12308E0DC201C49096809580847E0201949096809580847E4201749096809580847E82062
S12309001449096809580847EC201249096809580847F0200F49096809580847F4200D49DA
S1230920096809580847F8200A49096809580847FC2008490968095808475FF480700549E7
S1230940096809580847000003480449024A034B7047000000000020000B0000000B000053
S123096040EA010310B59B070FD1042A0DD310C808C9121F9C42F8D020BA19BA884201D91F
S1230980012010BD4FF0FF3010BD1AB1D30703D0521C07E0002010BD10F8013B11F8014BD7
S12309A01B1B07D110F8013B11F8014B1B1B01D1921EF1D1184610BD02F0FF0343EA0322A1
S12309C042EA024200F005B87047704770474FF000020429C0F0128010F0030C00F01B8087
S12309E0CCF1040CBCF1020F18BF00F8012BA8BF20F8022BA1EB0C0100F00DB85FEAC17CED
S1230A0024BF00F8012B00F8012B48BF00F8012B70474FF0000200B5134694469646203967
S1230A2022BFA0E80C50A0E80C50B1F12001BFF4F7AF090728BFA0E80C5048BF0CC05DF8EA
S1230A4004EB890028BF40F8042B08BF704748BF20F8022B11F0804F18BF00F8012B704780
S1230A60014B1B68DB6818470000002009480A497047FFF7FBFFFFF745FB00BD20BFFDE7E0
S1230A80064B1847064A1060016881F30888406800470000000B0000000B00001704000055
S1230AA0000000201EF0040F0CBFEFF30881EFF30981886902380078182803D100E00000B8
S1230AC0074A1047074A12682C3212681047000000B5054B1B68054A9B58984700BD00000A
S1230AE07703000000000020F00A000004000000001000000000000000FFFFFF0090D003EA
S1231000A81800208DF00200FD140100F3EF0200FD140100FD140100FD1401000000000041
S1231020000000000000000000000000E9F00200FD14010000000000FD140100FD1401009B
S123104051F1020057F10200FD140100FD140100FD140100FD140100FD140100FD14010092
S12310605DF10200FD140100FD14010063F10200FD14010069F102006FF1020075F102006A
S1231080FD140100FD140100FD140100FD140100FD140100FD140100FD140100FD140100BC
S12310A0FD1401007BF10200FD140100FD140100FD140100FD140100FD140100FD14010040
S12310C081F10200FD140100FD140100FD140100FD140100FD140100FD140100FD1401001A
S12310E0FD140100FD140100FD140100FD140100FD140100FD140100FD140100FD1401005C
S1231100FD140100FD14010000F002F82DF0ADFF0AA090E8000C82448344AAF10107DA4577
S123112001D12DF0A2FFAFF2090EBAE80F0013F0010F18BFFB1A43F00103184790E50200A6
S1231140B0E502000A444FF0000C10F8013B13F0070408BF10F8014B1D1108BF10F8015B95
S1231160641E05D010F8016B641E01F8016BF9D113F0080F1EBF10F8014BAD1C0C1B09D1DA
S12311806D1E58BF01F801CBFAD505E014F8016B01F8016B6D1EF9D59142D6D370470000C7
S12311A00023002400250026103A28BF78C1FBD8520728BF30C148BF0B6070471FB500F03E
S12311C05DF88DE80F001FBD8269034981614FF00100104470470000DD11000001B41EB47D
S12311E000B503F099FA01B40198864601BC01B01EBD00001EF0040F0CBFEFF30880EFF315
S12312000980014A10470000CF4C0000F0B44046494652465B460FB402A0013001B50648F8
S1231220004700BF01BC86460FBC8046894692469B46F0BC7047000009110000401E00BF68
S123124000BF00BF00BF00BF00BF00BF00BF00BF00BF00BF00BFF1D170470000401E00BFBF
S123126000BF00BF00BF00BF00BF00BF00BF00BF00BF00BF00BFF1D1704700002DF0F2BEEF
S12312805E4800210170417010218170704770B5054616460C46022000F09EF95749012000
S12312A008705749F01E086056480560001F046070BD10B5022000F08FF950490120087058
S12312C051480021C0F80011C0F80411C0F808114E494FF40000086010BD48480178D9B147
S12312E04B4A4FF4000111604749D1F800310022002B1CBFD1F80431002B02D0D1F8081111
S123130019B142704FF0100104E04FF00101417040490968817002704FF0000000F05CB986
S123132010B5022000F058F934480122002102703548C0F80011C0F80411C0F80811026009
S123134010BD2E480178002904BF407870472E48D0F80011002904BF02207047D0F8001185
S123136000291CBFD0F80411002905D0D0F80801002804BF01207047002070471F4800B503
S12313800278214B4078C821491EC9B282B1D3F800C1BCF1000F10D0D3F8000100281CBFB6
S12313A0D3F8040100280BD0D3F8080150B107E0022802D0012805D002E00029E4D1FFDF02
S12313C0002000BD012000BD0C480178002904BF807870470C48D0F8001100291CBFD0F8ED
S12313E00411002902D0D0F8080110B14FF01000704708480068C0B2704700000800002038
S123140010F5004008F5004000F0004004F5014008F5014000F40040564800210170417089
S1231420704770B5064614460D46012000F0D4F851480660001D0460001D05604F4900203C
S1231440C1F850014E49032008604F494D480860091D4E48086070BD2DE9F0410546454857
S12314600C46012606704A4945EA024040F08070086003F09CFC002804BF4648046000275E
S1231480454CC4F80471464944480860002D02BFC4F800622660BDE8F081012D18BFFFDF78
S12314A0C4F80072266040493E480860BDE8F0813048017871B13A4A384911603649D1F816
S12314C004210021002A08BF417002D0374A126842700170002000F07FB8264801780029D9
S12314E004BF407870472C48D0F80401002808BF70472E480068C0B27047002808BF704722
S123150030B51C480078002808BFFFDF2248D0F80411002918BF30BD0224C0F80443DFF809
S123152090C0DCF80010C1F30015DCF8001041F01001CCF80010D0F80411002904BF4FF4A4
S123154000414FF0E02206D1C2F8801220BFD0F80431002BF8D02DB9DCF8001021F0100127
S1231560CCF80010C0F8084330BD0B4901208860704700000B00002008F5004000100040D7
S12315801CF500405011004098F501400CF0004004F5004018F5004000F000400000020390
S12315A008F501400000020204F5014000F4004010ED00E04FF0E0224FF400400021C2F8FB
S12315C08001BFF34F8FBFF36F8F1748016001601649900208607047134900B500220A6078
S12315E00A60124B4FF060721A60002808BF00BD0F4A104BDFF840C001280CD002281CBF54
S1231600FFDF00BD032008601A604FF4000000BFCCF8000000BD022008601A604FF04070B0
S1231620F6E700B5FFDF00BD00F5004008F50140E002002014F5004004F5014010B5FF4875
S1231640002401214470047044728472C17280F82540C462846380F83C4080F83D40FF2146
S123166080F83E105F2180F83F1018302DF0A4FDF349601E0860091D0860091D0C60091DEB
S12316800860091D0C60091D0860091D0860091D0860091D0860091D0860091D0860091DD2
S12316A00860091D0860091D086010BDE548016801F00F01032904BF01207047016801F01D
S12316C00F01042904BF02207047016801F00F01052904D0006800F00F00062807D1DA4832
S12316E0006810F0060F0CBF08200420704700B5FFDF012000BD10B5D04C0168A161416835
S1231700E161007A84F82000207E48B1207F01F06CFAA07E011C18BF0121207F01F047FADB
S1231720607E002808BF10BD607F01F05EFAE07E011C18BF0121607FBDE8104001F037BAB9
S123174030B50024054601290AD0022908BF4FF0807405D0042916BF08294FF0C744FFDFD8
S123176044F4847040F48010B849086045F4403001F1040140F00070086030BD30B500246E
S1231780054601290AD0022908BF4FF0807405D0042916BF08294FF0C744FFDF44F4847075
S12317A040F48010A949086045F4403001F1040140F000700860A648D0F80001002818BFA9
S12317C0FFDF30BD2DE9F04102274FF0E02801250024C8F88071BFF34F8FBFF36F8F9D4863
S12317E00460056003F00DFB9B4E18B1306840F48060306003F0DBFA38B1306820F0770063
S123180040F0880040F0004030609549934808604FF01020806CB0F1FF3F04D091490A6891
S123182060F317420A60904940F25B600860091F40F203100860081F0560824903200860A9
S12318408A4805608B4A8A4911608C4A8A491160121F8B491160016821F4407101600168AB
S123186041F480710160C8F8807279491020C1F80403724880F83140C462BDE8F0816F4AE1
S12318800368C2F802308088D080117270476B4B10B51A7A8A4208D101460622981C2DF067
S12318A093FA002804BF012010BD002010BD634890F825007047614A517010707047F0B57A
S12318C00546800000F1804000F580508B88C0F820360B78D1F8011043EA0121C0F8001628
S12318E005F10800012707FA00F6664C002A04BF2068B04304D0012A18BFFFDF20683043FE
S12319002060206807FA05F108432060F0BD00F0D5BF4A4890F832007047484890F8340079
S12319207047594AC178116000685849000208607047252808BF02210ED0262808BF1A2110
S12319400AD0272808BF502106D00A2894BF0422062202EB4001C9B24D4A11604D490860CA
S1231960704736498A7A012A49D0022A18BF70474B7E002B08BF7047012A44D0CB7E4A7F68
S123198013F1000C18BF4FF0010C24231844424B1860424B0020C3F84C0110028CF0010222
S12319A040EA025040F0031291F82000830003F1804303F5C043C3F81025394A8B7F02EB1A
S12319C08000DA0002F1804202F5F832C2F81405DFF8D0C0C2F810C5C97FCA0002F1804243
S12319E002F5F832C2F814052548C2F81005012000FA03F288402C491043086070470B7E6B
S1231A00002BB9D170478B7E0A7F002B14BF4FF0010C4FF0000C1123B8E72DE9F0410C4EBB
S1231A20804603200D46C6F800021F491F480860284600F082FF014F012439E0EC030020F3
S1231A40000E004010150040141400401415004000100040FC1F00403C1700402C0000890B
S1231A60781700408C150040381500405016004000000E0408F5014040800040A4F5014055
S1231A801011004040160040241500401C15004008150040541500404C850040008000408A
S1231AA0006000404C81004004F5014000000404B8F1000F04BFBC72346026D0B8F1010F47
S1231AC023D1F848006860B915F00C0F09D0C6F80443012000F0B2FEF463346487F83C40A4
S1231AE002E0002000F0AAFE284601F00EF80220B87203F074F938B903F083F920B9EA48CC
S1231B00016841F4C02101607460E848C464E84800682946BDE8F04123E72DE9F047E54E4E
S1231B20814603200D46C6F80002DFF89083E248C8F80000084600F000FF284600F0E5FF51
S1231B400124DF4FB9F1000F03D0B9F1010F0AD026E0BC72B86B40F48010B8634FF4801005
S1231B60C8F800001CE00220B872B86B40F40010B8634FF40010C8F80000CA48006860B931
S1231B8015F00C0F09D0C6F80443012000F056FEF463346487F83C4002E0002000F04EFEB6
S1231BA005F041F92946BDE8F047DAE62DE9F84FC04C8246032088461746C4F80002DFF8D3
S1231BC0FC92BD48C9F80000104600F0B6FEDFF8F4B2BB4E0125BAF1000F04BFCBF8004087
S1231BE0B57204D0BAF1010F18BFFFDF2FD0B648C0F80080B649B5480860B06B40F400206E
S1231C00B063D4F800321021C4F808130020C4F80002DFF8C0C28A03CCF80020C4F8000142
S1231C20C4F80C01C4F81001C4F80401C4F81401C4F81801A84800680090C4F80032C9F80C
S1231C400020C4F80413BAF1010F09D01BE0384600F05BFFA148CBF800000220B072C6E799
S1231C609048006860B917F00C0F09D0C4F80453012000F0E3FDE563256486F83C5002E04B
S1231C80002000F0DBFD4FF40020C9F800008748C56487480068404528BFFFDF39464046B6
S1231CA0BDE8F84F5DE62DE9F041854C0646002594F8310017468846002808BFFFDF16B1EC
S1231CC0012E16D021E094F83100012808D094F830203946404600F045FEE16A451814E07C
S1231CE094F830103A46404600F07AFEE16A45180BE094F8310094F8301001283A4640465B
S1231D0009D000F095FEE16A45183A4629463046BDE8F0414AE700F045FEE16A4518F4E799
S1231D202DE9F84F634CD4F8000220F00B09D4F804034FF0100AC0F30018C4F808A300261D
S1231D40C4F800626348664901605D4D0127A97A012902D0022903D015E0297E11B912E05F
S1231D60697E81B1A97FEA7F07FA01F107FA02F21143016095F82000800000F1804000F545
S1231D80C040C0F81065FF208DF80000C4F81061276104E09DF80000401E8DF800009DF8C8
S1231DA0000018B1D4F810010028F3D09DF80000002808BFFFDFC4F81061002000F03EFDB4
S1231DC06E72AE72EF72C4F80092B8F1000F18BFC4F804A3BDE8F88FFF2008B58DF80000D1
S1231DE034480021C0F810110121016105E000BF9DF80010491E8DF800109DF8001019B131
S1231E00D0F810110029F3D09DF80000002808BFFFDF08BD0068334920F07F4008607047F0
S1231E204FF0E0210220C1F88001BFF34F8FBFF36F8F70474FF0E0200221C0F8801100F56B
S1231E40C070BFF34F8FBFF36F8FC0F8001170474FF0E0210220C1F80001704722490870D8
S1231E60704722490860704770B5054604F0DBFF134C2844E16A884298BFFFDF0120207415
S1231E8004F0D1FF094A284400216061C2F8441117490860A06B094940F48000A063D0011D
S1231EA0086070BD8817004068150040008000404C850040001000400000040404F501408A
S1231EC0EC030020ACF501404885004048810040A8F5014008F5014018110040041000401E
S1231EE000000E043C1500400D000020041500404485004070B505460E460220FE4CFF4A33
S1231F002074106800F00F00032808BF012213D0106800F00F00042808BF02220CD01068D8
S1231F2000F00F0005281BD0106800F00F0006281CBFFFDF012213D094F8310094F8301099
S1231F40012815D0284600F0BAFDED4960610020C1F844016169E06A0844EA49086070BD1D
S1231F60E948006810F0060F0CBF08220422E3E73346284600F071FDE7E7E4494FF48000C7
S1231F800860DD48816B21F480018163002101747047C20002F1804202F5F832DC4BC2F884
S1231FA01035C2F8141501218140DA480160D248826B114381637047D14801214160C1609C
S1231FC00021C0F84411CF480160CB48C1627047D1490860D148D0F8001241F04001C0F8CB
S1231FE000127047CD48D0F8001221F04001C0F80012C949002008607047C848D0F80012CE
S123200021F01001C0F80012012181617047BA49FF2081F83E00C1480021C0F81C11D0F865
S1232020001241F01001C0F800127047BB4981B0D1F81C21012A0DD0AF4991F83E10FF298D
S12320400DBF00204942017001B008BF7047012001B07047B24A126802F07F0252420270ED
S12320600020C1F81C01AF4800680090EFE7F0B517460C00064608BFFFDF9F4D14F0010FA2
S12320802F731CBF012CFFDF002E0CBF012002206872EC7201281CBF0228FFDFF0BD9649A8
S12320A081F83F0070472DE9F84FDFF87CA29AF80000042828BFFFDF8F4CDFF85082974D70
S12320C094F83C0000260127E0B1D5F8040110F1000918BF4FF00109D5F81001002818BF7C
S12320E0012050EA09014FF4002B17D08021C5F80813C8F800B084F83C6090F0010F18BFBA
S1232100BDE8F88FDFF8F891D9F84C0100287DD0A07A01287BD002287AD0AEE0D5F800013E
S1232120DFF8FCA130B3C5F800616F61FF20009002E0401E009005D0D5F81C010028009858
S1232140F7D000B9FFDFDAF8000000F07F0A94F83F0050453CBF002000F070FB84F83EA0A2
S1232160C5F81C61C5F808736E48006800902F64AF6302E0B9F1000F03D0B9F1000F2BD074
S12321805DE0DAF8000000F07F0084F83E00C5F81C6194F83D1049B194F83F10814218D26E
S12321A0002000F04BFB2F64AF6312E05F49096894F83F308AB2090C984203D30F2A06D901
S12321C0022904D2012000F039FB2F6401E02F64AF635448006800908022C5F804234848F2
S12321E0876453490B68A1F1040CDCF800C043F698273B44634519D20A6842F210731A441A
S12322000A60C0F848614B484B4902E035E01DE01FE00860091F494808603E48C0F800B05E
S1232220A06B40F40020A063BDE8F88F0E60C0F84861C5F80823C8F800B0C0F848618020E4
S1232240C5F80803C8F800B0BDE8F88F207E10B913E0607E88B1A07FE17F07FA00F007FA34
S123226001F10843C8F8000094F82000800000F1804000F5C040C0F810652448A16B016085
S1232280A663217C002019B1D9F84411012900D00021A27A012A7DD0022A7CD0D5F810116F
S12322A001290CBF1021002141EA00082448016811F0FF0F03D0D5F81411012900D00021DC
S12322C084F83210006810F0FF0F03D0D5F81801012800D0002084F833001A48006884F8FF
S12322E03400FFF72EF8012818BF002084F83500C5F8006128E00000EC030020101500401F
S123230000800040448500401414004008F501400411004004F501406015004000100040B6
S1232320481500401C1100400D000020741500404885004014100040ACF50140488100403D
S12323404016004010140040C5F80C61C5F81061C5F80461C5F81461C5F81861FC480068F1
S12323600090FC48C0F84461FB480068DFF8EC930090D9F80000A062A9F104000068E0627C
S1232380F748016801F00F01032908BF012016D0016801E01BE021E001F00F01042908BF5B
S12323A002200CD0016801F00F01052925D0006800F00F0006281CBFFFDF01201DD084F8B6
S12323C03000A07A84F8310002282BD11DE0D5F80C01012814BF002008205FE7D5F80C01A1
S12323E0012814BF00200220DE4A1268012A14BF042200221043084350E7DB48006810F053
S1232400060F0CBF08200420D9E7607850B1D749096809780840217831EA000008BF84F8A2
S1232420247001D084F8246018F0020F0AD004F0FAFCA16ACE4A081A9AF80010490852F8D4
S12324402110884718F0010F18BF4FF0000B11D004F0E9FCE16A9AF80020081AC54951F80F
S123246022205946904700BF9AF8000010F0010F2FD10CE018F0020F18BF4FF0010BE7D160
S123248018F0080F18BF4FF0020BE1D1ECE7DFF8DCB2DBF80000007800F00F00072828BFAC
S12324A084F8256015D2DBF80000062200F10901A01C2CF089FC40B9207ADBF800100978E6
S12324C0B0EBD11F08BF012001D04FF0000084F82500E17A4FF0000011F0020F1CBF18F045
S12324E0020F18F0040F19D111F0100F1CBF94F83320002A02D094F835207AB111F0080FC8
S12325001CBF94F82420002A08D111F0040F02D094F8251011B118F0010F01D04FF0010077
S1232520617A19B168B1FFF7FBFB10E0934892490160D5F8000220F00300C5F80002E772EC
S123254005E001290DD0022918BFFFDF10D018F0010F17D08A489AF8001050F82100804728
S123256056E06672E772A7729621227B002006E06672E7720220A072227B96210120FFF7AD
S123258092FBE4E718F0020F2DD018F0040F21D102F025FCF0B902F034FCD8B97948016823
S12325A0001F0068C0F3006CC0F3425500F00F03C0F30312C0F30320BCF1000F0AD0002BC6
S12325C01CBF002A002805D1002918BF032D38BF48F0040827EA98006B499AF8002051F831
S12325E02210884714E018F0080F06D067489AF8001050F8210080470AE018F0100F08BF94
S1232600FFDF05D062489AF8001050F821008047A07A022818BFBDE8F88F207C002808BFB5
S1232620BDE8F88F4B49C1F84461022814D0012818BFFFDFE16A6069884298BFFFDF6069B0
S1232640C9F80000A06B4FF4800140F48000A06350480160BDE8F88F6169E06A0844EFE7D4
S123266038B54D4D0024002818BFC5F800424B4800684B498A7A012A02D0022A03D018E026
S12326800A7E12B915E04A7E9AB18B7F012291F81FC002FA03F302FA0CF21A43374B1A6001
S12326A091F82010890001F1804101F5C041C1F810450121FFF755F9C5F80041C5F80C41AE
S12326C0C5F81041C5F80441C5F81441C5F818411F480068009038BD012804BF282070477F
S12326E0022804BF18207047042812BF08284FF4A870704700B5FFDF282000BD012804BF37
S123270041F6A4707047022804BF41F288307047042804BF46F218007047082804BF47F202
S1232720A030704700B5FFDF41F6A47000BD10B5022837D0012804BF42F6CE3010BD042862
S123274017BF082843F6A440FFDF41F66A0010BD18110040008000404481004044850040CF
S123276010150040001400401414004004150040CCF1020014F202000000040408F50140CE
S1232780D4F1020054140040E4F10200F4F1020004F2020004F50140001000404085004081
S12327A0EC03002002F0F6FA30B902F000FB002808BF41F6583001D041F2643041F29A013A
S12327C0084410BD012812BF022800207047042812BF08284FF4C870704700B5FFDF0020CF
S12327E000BD27490820C1F80002274925480860274926480860091D264808602749264860
S12328000860091D2648086026494FF46020086025490220887270472448016803291BBF9A
S123282000680228012000207047204801680B291BBF00680A280120002070471C490968C3
S1232840C9B91C4A1C49136870B123F0820343F07D0343F0004313600A6822F0100242F08F
S1232860600242F0004205E023F0004313600A6822F000420A600C4981F83D0070470000DE
S1232880001000400000040408F501400011004098F50140141000401C110040A8F50140D0
S12328A01010004004F50140EC03002050150040881700403C1700407C17004000B59B49E8
S12328C002282ED021DC10F10C0F08BFF42028D00FDC10F1280F08BFD82022D010F1140FE8
S12328E008BFEC201DD010F1100F08BFF02018D021E010F1080F08BFF82012D010F1040F47
S12329000CBFFC2000280CD015E0A0F10300062811D2DFE800F00E0C0A080503082000E03B
S12329200720086000BD0620FBE70520F9E70420F7E70320F5E7FFDF00BD00B57C490128FB
S123294008BF03200CD0022808BF042008D0042808BF062004D0082816BFFFDF052000BD0E
S1232960086000BD70B505460C4616461046FFF7C5FE022C08BF4FF47A7105D0012C0CBF11
S12329804FF4C86140F6340144183046FFF71AFF204449F6797108444FF47A71B0FBF1F0E8
S12329A0281A70BD70B505460C460846FFF7BFFE022C08BF40F24C4105D0012C0CBF40F62A
S12329C034014FF4AF5149F6CA62511A08444FF47A7100F2E140B0FBF1F0281A801E70BD7F
S12329E070B5064615460C460846FFF7A0FE022D08BF4FF47A7105D0012D0CBF4FF4C86175
S1232A0040F63401022C08BF40F24C4205D0012C0CBF40F634024FF4AF52891A084449F6E7
S1232A20FC6108444FF47A71B0FBF1F0301A70BD70B504460E460846FFF760FE0546304692
S1232A40FFF7C0FE28444AF2AB3108444FF47A71B0FBF1F0201A801E70BD2DE9F04107469B
S1232A601E460D4614461046082A16BF04284EF62830FFF743FE07EB4701C1EBC71100EB3C
S1232A80C100022D08BF40F24C4105D0012D0CBF40F634014FF4AF5147182846FFF747FE38
S1232AA0381A4FF47A7100F6B730B0FBF1F52046FFF712FE28443044401DBDE8F08170B540
S1232AC0054614460E460846FFF718FE05EB4502C2EBC512C0EBC2053046FFF773FE2D1A4E
S1232AE02046082C16BF04284EF62830FFF706FE28444FF47A7100F6B730B0FBF1F5204633
S1232B00FFF7EAFD2844401D70BD0A49082818BF0428086803BF20F46C5040F4444040F06E
S1232B20004020F000400860704700000C150040101500404017004010B5FEF77FFDFEF75A
S1232B4039FDFEF79DFBBDE81040FEF765BC302834BF012000207047202834BF4FF0A04204
S1232B60284A012300F01F0003FA00F00029D2F8101501EA000003D0002808BF704703E060
S1232B8000281CBF0020704701207047202834BF4FF0A0421B4A012300F01F0003FA00F09E
S1232BA0002914BFC2F80805C2F80C057047202834BF4FF0A042134A012300F01F0003FAE3
S1232BC000F0002914BFC2F80C05C2F808057047202834BF4FF0A0410A4900F01F0001EB13
S1232BE080000022C0F800277047202834BF4FF0A041044900F01F00012202FA00F0C1F81A
S1232C00180570470003005010B504460021012000F04AF800210B2000F046F8042119202E
S1232C2000F042F804210D2000F03EF804210E2000F03AF804210F2000F036F80421C843D7
S1232C4000F032F80621162000F02EF80621152000F02AF820460DF00BFC20460DF046FC66
S1232C60002010BDB9210180704710B50DF010FCBDE810400DF04FBC134870471248704763
S1232C80124A10B51468114B114A08331A60C02802D30EF0B1FA01E00DF0FCFB0B48001D7C
S1232CA0046010BD704770474907090E002804DB00F1E02080F80014704700F00F0000F1DF
S1232CC0E02080F8141D704703F9004210050240010000012DE9F0410C4612490D68114A35
S1232CE0114908321160A0F12001312901D301200CE0412810D040CC0C4F94E80E0007EBB2
S1232D008000241F50F8807C3046B84720600548001D0560BDE8F0812046FEF755FAF5E748
S1232D2006207047100502400100000124F202002DE9F041044680074FF000054FF001069F
S1232D400CD56B480560066002F05BF820B16948016841F48061016024F00204E0044FF02C
S1232D60FF3705D564484660C0F8087324F48054600003D56148056024F08044E0050FD5E7
S1232D805F48C0F80052C0F808735E490D60091D0D605C4A04210C321160066124F48074B7
S1232DA0A00409D558484660C0F80052C0F808735648056024F40054C4F38030C4F3C0318C
S1232DC0884200D0FFDF14F4404F14D050484660C0F808734F488660C0F80052C0F80873D1
S1232DE04D490D600A1D16608660C0F808730D60166024F4404420050AD548484660866077
S1232E00C0F80873C0F848734548056024F4006401F068F84348044200D0FFDFBDE8F081B4
S1232E20F0B50022202501234FEA020420FA02F1C9072DD051B2002910DB00BF4FEA5117CE
S1232E404FEA870701F01F0607F1E02703FA06F6C7F88061BFF34F8FBFF36F8F0CDB00BF13
S1232E604FEA51174FEA870701F01F0607F1E02703FA06F6C7F8806204DB01F1E02181F8EC
S1232E80004405E001F00F0101F1E02181F8144D02F10102AA42C9D3F0BD10B5224C206059
S1232EA0084600F0DCF92068FFF742FF2068FFF7B7FF00F013FB01F0B0FA01F013F800F083
S1232EC056FF01F093FBBDE8104000F0B7BB10B5154C2068FFF72CFF2068FFF7A1FF01F0E5
S1232EE001F800F0B3FA0020206010BD0A207047FC1F00403C17004000C0004004E50140D2
S1232F00008000400485004000D0004004D5004000E0004000F0004000F5004000B0004086
S1232F2008B50040FEFF0FFD2400002070B526490A680AB30022154601244B685B1C4B6009
S1232F400C2B00D34D600E7904FA06F30E681E420FD0EFF3108212F0010272B600D00122EF
S1232F600C689C430C6002B962B649680160002070BD521C0C2AE0D3052070BD4FF0E02173
S1232F804FF48000C1F800027047EFF3108111F0010F72B64FF0010202FA00F20A4803685F
S1232FA042EA0302026000D162B6E7E70648002101604160704701218140034800680840BD
S1232FC000D00120704700002C0000200548064A0168914201D100210160044901200860F6
S1232FE0704700002C010020BEBAFECA40E50140704770477047704770477047704770476B
S12330002CFFFFFFDBE5B15100100300B900FFFF5401000069915B00C1C6860488A72E30AF
S1233020284E48F09E8543C06F67C3AA10B5EFF3108000F0010472B6FB484178491C41700F
S12330404078012801D100F077FC002C00D162B610BD70B5F44CA07848B90125A570FFF7C5
S1233060E5FF00F07AFC20B10020FFF78EFF002070BD4FF08040E570C0F80453F7E770B5DB
S1233080EFF3108000F0010572B6E74C607800B9FFDF6078401E6070607808B900F050FC1F
S12330A0002D00D162B670BDDF4810B5817821B10021C1708170FFF7E2FF002010BD10B546
S12330C0044600F04AFCD8498978084000D001202060002010BD10B5FFF7A8FF00F03DFC19
S12330E002220123D049540728B1D048026023610320087202E00A72C4F804330020887132
S123310010BD2DE9F05FDFF820934278817889F80420002689F80510074689F8066000782F
S1233120DFF80CB33546052812D2DFE800F01203050D0F0001260CE0FFF778FF58460168F5
S1233140C907FCD0022604E0BA4E02E0BA4E00E0FFDF00F014FC4FF0804448B100F016FC15
S1233160B04205D1304600F015FC0028FAD037E00120E060C4F80451B0490E600107D1F859
S12331804412AE4AC1F3423124321160AB49343108604FF0020AC4F804A3A060A848016827
S12331A0C94341F3001101F10108016841F01001016000E020BFD4F804010028FAD03046BB
S12331C000F0E8FB0028FAD0B8F1000F04D19C48016821F010010160C4F808A3C4F8045151
S12331E099F805004E4680B1387870B900F0B5FB804601F0B3FA6FF00042B8F1000F02D068
S1233200C6E9032001E0C6E90302DBF80000C00701D000F09EFB387810B13572BDE8F09F03
S12332204FF01808C4F80883C4F82C510127A761D4F82C010028FBD0C4F80C51C4F8105159
S12332407948C01D00F066FC3570FFF744FF67617A49307920310860C4F80483DEE770B582
S1233260050000D1FFDF4FF080424FF0FF30C2F808030021C2F80011C2F80411C2F80C11D0
S1233280C2F81011684C617000F073FB10B10120A070607066480068C00701D000F059FBB8
S12332A02846BDE870402CE75F48007A002800D0012070472DE9FF5F6248D0F80080614A32
S12332C06149083211608406D4F8080100B10120D4F8241101B101218A46D4F81C1101B114
S12332E001218946D4F8201109B1012700E00027D4F8001101B101218B46D4F8041101B1DE
S123330001210391D4F80C1101B101210291D4F8101101B10121444D019129780026009167
S123332020B1C4F808610120FFF72FFEBAF1000F04D0C4F824610920FFF727FEB9F1000F83
S123334004D0C4F81C610A20FFF71FFE27B1C4F820610B20FFF719FE3348C01D00F0E2FBAD
S123336000B1FFDFDFF8C4900127BBF1000F10D0C4F80873E87818B1EE700020FFF705FEF5
S1233380287A022805D1032028720221C9F800102761039808B1C4F80461029850B1C4F882
S12333A00C61287A032800D0FFDFC9F800602F72FFF765FE019838B1C4F81061287A01288C
S12333C001D100F061F86761009838B12E70287A012801D1FFF77FFEFFF751FE1248C01D5B
S12333E000F0B6FB1749091DC1F80080BDE8FF9F0D4810B5C01D00F095FB0B4940B1012049
S123340008704FF0E021C1F80002BDE810400DE6087A012801D1FFF75EFE0348BDE810403E
S1233420C01D00F095BB000010000020340C00400C04004001000200010003001805004007
S123344010ED00E0100502400100000170B5224CA07808B900F074FA01208507A861207A18
S1233460002603280AD100BFD5F80C0120B9002000F090FA0028F7D1C5F80C6126724FF01F
S1233480FF30C5F8080370BD70B5134C6079F0B1012803D0A179401E814218DA00F05DFA96
S12334A0054601F05BF96179012902D9A179491CA1710DB1216900E0E168411A022902DA35
S12334C011F1020F06DC0DB1206100E0E060BDE8704000E670BD00001000002010B553489C
S12334E000F018FB00B1FFDF5048401C00F012FB002800D0FFDF10BD2DE9F14F4C4ED6F8E4
S123350000B00127494800F00DFBDFF8208128B95FF0000708F1010000F01AFB454C0025E2
S12335204FF0030901206060C4F80051C4F80451009931602060DFF800A118E0DAF8000051
S1233540C00614D50E2000F064F8EFF3108010F0010072B600D00120C4F80493D4F8001182
S123356019B9D4F8041101B920BF00B962B6D4F8000118B9D4F804010028DFD0D4F8040113
S12335800028CFD137B1C6F800B008F1010000F0C9FA11E008F1010000F0C4FA0028B9D111
S12335A0C4F80893C4F80451C4F800510E2000F030F81E4800F0CCFA0020BDE8F88F2DE9CE
S12335C0F0438DB00D46064600240DF110090DF1200817E004EB4407102255F827106846E2
S12335E02BF03DFC05EB87071022484679682BF036FC6846FFF780FF10224146B8682BF0F0
S12336002EFC641CB442E5DB0DB00020BDE8F08372E7002809DB00F01F020121914040099F
S1233620800000F1E020C0F8801270472800002004E5004000E0004010ED00E0B34900208A
S12336400870704770B5B24D01232B60B14B1C68002CFCD0002407E00E6806601E68002E51
S1233660FCD0001D091D641C9442F5D30020286018680028FCD070BD70B5A44E0446A64D7C
S12336803078022800D0FFDFAC4200D3FFDF7169A248012903D847F23052944201DD0322AA
S12336A04271491C7161291BC1609C49707802F08BFA002800D1FFDF70BD70B5934C0D4618
S12336C06178884200D0FFDF934E082D4BD2DFE805F04A041E2D4A4A4A382078022800D065
S12336E0FFDF03202070A078012801D020B108E0A06800F061F904E004F1080007C8FFF772
S1233700A1FF05202070BDE8704001F094BE01F08DFF0146606802F0DCFEB04202D26169D0
S123372002290BD30320FFF730FC12E001F07EFF0146606802F0CDFEB042F3D2BDE87040FF
S12337409AE7207802280AD0052806D0FFDF04202070BDE8704000F0CEB8022000E00320C3
S1233760FFF713FCF3E7FFDF70BD70B5054601F05DFF664C60602078012800D0FFDF67490D
S1233780012008700020087104208D6048716248C86002202070607802F016FA002800D1D2
S12337A0FFDF70BD10B5594C207838B90220FFF702FC18B90320FFF7FEFB08B1112010BD57
S12337C0574801F0B2FE6070202804D0012020700020606110BD032010BD2DE9F0471546C2
S12337E0044600EB85000E46A0F1040800F0F7F807464FF0805001694F4306EB8501091F44
S1233800B14201D2012100E0002189461DB10069B5EB900F02D90920BDE8F087204601F0FF
S123382003FBB0B9A04514D3BC4201D2B84503D33C4820447C2803D844EA0600800701D0BA
S12338401020E9E7304601F0EFFA10B9B9F1000F01D00F20E0E7344834490068884205D0CB
S12338602A4631462046FFF7EDFE14E0FFF79AFF0028D1D1254800210561C0E902468170F3
S123388001F095FA10B14FF4A97000E0292068431830FFF76AFF0020BEE770B505464FF098
S12338A0805004696C43204601F0BEFA08B10F2070BD00F094F8A84201D8102070BD1A48F6
S12338C01A490068884203D0204600F075F810E0FFF768FF0028F1D10C4801218460817037
S12338E001F065FA08B1124800E012481830FFF73CFF002070BD10B5044C607801F077FE0E
S123390000B9FFDF0020207010BD00003400002004E5014000E40140105C0C002C04002024
S1233920BB36000080EFFFEF2C010020BEBAFECA645E0100084C01000120810708607047C8
S12339400121880741600021C0F8001118480170704717490120087070474FF08040D0F828
S12339600001012803D012480078002800D00120704710480068C00700D0012070470D4820
S12339800C300068C00700D0012070470948143000687047074910310A68D20306D5096838
S12339A08907B1EB807F01D101207047002070474C000020080400400B4A022111600B4962
S12339C00B68002BFCD0084B1B1D186008680028FCD00020106008680028FCD070474FF028
S12339E0805040697047000004E5014000E4014010B50D2000F077F8C4B26FF0040000F02A
S1233A0072F8C0B2844200D0FFDF3E490120086010BD70B50D2000F048F83B4C0020C4F890
S1233A2000010125C4F804530D2000F04FF825604FF0E0216014C1F8000170BD10B50D20D2
S1233A4000F033F83048012141600021C0F80011BDE810400D2000F039B82C4810B504687A
S1233A602A492B48083108602749D1F80001012804D0FFDF2548001D046010BD2148001D65
S1233A8000680022C0B2C1F8002100F035FDF1E710B51D48D0F800110029FBD0FFF7DDFF89
S1233AA0BDE810400D2000F011B800280DDB00F01F02012191404009800000F1E020C0F8A1
S1233AC08011BFF34F8FBFF36F8F7047002809DB00F01F02012191404009800000F1E02090
S1233AE0C0F880127047002804DB00F1E02090F8000405E000F00F0000F1E02090F8140DBF
S1233B004009704704D5004000D00040100502400100000100210170084670470146002021
S1233B2008707047EFF3108101F0010172B60278012A01D0012200E000220123037001B9D8
S1233B4062B60AB1002070474FF400507047E9E7EFF3108111F0010F72B64FF0000202703E
S1233B6000D162B600207047F2E700000C490A6848F202139A4302430A607047084A116884
S1233B8048F2021301EA03009943116070470246044B10201344FC2B01D81160002070477A
S1233BA0C80602400018FEBF7B490968016000207047794908600020704701218A0720B12A
S1233BC0012804D042F204007047916700E0D1670020704771490120086042F206007047DA
S1233BE008B504236D4A1907103230B1C1F80433106840F0010010600BE0106820F0010066
S1233C001060C1F808330020C1F80801644800680090002008BD011F0B2909D85F491031B3
S1233C200A6822F01E0242EA400008600020704742F2050070470F2809D8584910310A68D5
S1233C4022F4706242EA002008600020704742F205007047000100F18040C0F80419002056
S1233C607047000100F18040C0F8081900207047000100F18040D0F8000908600020704765
S1233C80012801D907207047464A52F8200002680A43026000207047012801D90720704774
S1233CA0404A52F8200002688A43026000207047012801D9072070473A4A52F82000006865
S1233CC0086000207047020037494FF0000003D0012A01D0072070470A6070470200334994
S1233CE04FF0000003D0012A01D0072070470A60704708B54FF40072510510B1C1F804234A
S1233D0008E0C1F808230020C1F8240124481C3000680090002008BD08B58022D10510B14A
S1233D20C1F8042308E0C1F808230020C1F81C011B48143000680090002008BD08B54FF459
S1233D408072910510B1C1F8042308E0C1F808230020C1F8200112481830006800900020B6
S1233D6008BD0D49383109680160002070474FF080410020C1F80801C1F82401C1F81C017C
S1233D80C1F820014FF0E020802180F800140121C0F80011704700000004004000050040AE
S1233DA008010040E8F2020078050040800500406249634B0A6863499A42096801D1C1F30E
S1233DC010010160002070475C495D4B0A685D49091D9A4201D1C0F310000860002070475B
S1233DE05649574B0A68574908319A4201D1C0F3100008600020704730B5504B504D1C68E2
S1233E0042F20803AC4202D0142802D203E0112801D3184630BDC3004B481844C0F81015C5
S1233E20C0F81425002030BD4449454B0A6842F209019A4202D0062802D203E0042801D320
S1233E4008467047404A012142F83010002070473A493B4B0A6842F209019A4202D00628C7
S1233E6002D203E0042801D308467047364A012102EBC00041600020704770B52F4A304E9F
S1233E80314C156842F2090304EB8002B54204D0062804D2C2F8001807E0042801D318468D
S1233EA070BDC1F31000C2F80008002070BD70B5224A234E244C156842F2090304EB80025E
S1233EC0B54204D0062804D2D2F8000807E0042801D3184670BDD2F80008C0F310000860CE
S1233EE0002070BD174910B50831184808601120154A002102EBC003C3F81015C3F8141526
S1233F00401C1428F6D3002006E0042804D302EB8003C3F8001807E002EB8003D3F8004886
S1233F20C4F31004C3F80048401C0628EDD310BD0449064808310860704700002C01002058
S1233F40BEBAFECA00F5014000F001400000FEFF02000B464FF00000014620D0012A04D0F1
S1233F60022A04D0032A0DD103E0012002E0022015E00320072B05D2DFE803F00406080A33
S1233F800C0E100007207047012108E0022106E0032104E0042102E0052100E0062101F0D5
S1233FA0E2BA0000F948052181700021017041707047F7490A78012A05D0CA681044C8609F
S1233FC0403802F051BA8A6810448860F8E7002819D00378EF49F04A13B1012B0ED011E09E
S1233FE00379012B00D06BB943790BB1012B09D18368643B8B4205D2C0680EE00379012BB7
S123400002D00BB10020704743790BB1012BF9D1C368643B8B42F5D280689042F2D80120C6
S12340207047DB4910B501220A700279A2B100220A71427992B104224A718268D34C523268
S12340408A60C0681434C860606001F0EFFACF4920600220887010BD0322E9E70322EBE7D5
S123406070B5CB4D044600202870207988B100202871607978B10420C44E6871A168F06800
S123408000F072FFA860E0685230E8600320B07070BD0120ECE70320EEE72DE9F0410546B3
S12340A0022602F0A5F8006800B1FFDFB74C01273DB12878B0B1012805D0022810D0032801
S12340C013D027710CE06868C82807D302F02CFA20B16868FFF76DFF012603E0002601E0AF
S12340E000F05EF93046BDE8F08120780028F7D16868FFF76CFF0028E3D06868017879B1E2
S1234100A078042800D0FFDF01216868FFF7A8FF9F49E07801F058FD0028E1D1FFDFDFE716
S1234120FFF77FFF6770DBE72DE9F047974C8846E178884200D0FFDFDFF850920025012799
S1234140934E09F11409B8F1080F75D2DFE808F0040C28527A808D95A078032802D00228B8
S123416000D0FFDFBDE8F087A078032802D0022800D0FFDF0420A07025712078002878D1B1
S1234180FFF717FF3078012806D0B068E060FFF7F5FC2061002060E0E07801F089FBF5E79F
S12341A0A078032802D0022800D0FFDF207800286DD1A078032816D001F038FA01464F46E8
S12341C0D9F8000002F085F900280EDB796881420BDB081AF0606E49E07801F0F5FC002874
S12341E0C0D1FFDFBEE7042028E00420FEF7CDFEA570B7E7A078032802D0022800D0FFDFF7
S1234200207888BBA078032817D001F00FFA01464F46D9F8000002F05CF90028E5DB7968DE
S12342208142E2DB081AF0605949E07801F0CCFC002897D1FFDF95E740E00520FEF7A5FE0E
S1234240A7708FE7A078042800D0FFDF022004E0A078042800D0FFDF0120A1688847FFF7F4
S12342601CFF054630E004E011E0A078042800D0FFDFBDE8F04700F093B8A078042804D0CE
S1234280617809B1022800D0FFDF207818B1BDE8F04700F08EB8207920B10620FEF775FE44
S12342A02571CDE7607838B13949E07801F08CFC00B9FFDF657055E70720BFE7FFDF51E711
S12342C03DB1012D03D0FFDF022DF9D14AE70420C3E70320C1E770B5050004D02B4CA078BD
S12342E0052806D101E0102070BD0820FEF763FE08B1112070BD294801F017F9E0702028D9
S123430006D0012102F085FA0020A560A07070BD032070BD1D4810B5017809B1112010BD23
S12343208178052906D0012906D029B101210170002010BD0F2010BD00F03BF8F8E770B5FF
S1234340124C0546A07808B1012809D155B12846FFF73DFE40B1287840B1A078012809D09B
S12343600F2070BD102070BD072070BD2846FFF758FE03E000212846FFF772FE0449E078F5
S123438001F022FC00B9FFDF002070BD500000203C0400203D860100FF1FA1072941000062
S12343A00A4810B50069FFF7E1FBBDE8104001F042B8064810B5C07801F019F900B9FFDFE2
S12343C00820FEF7E2FDBDE81040EBE5500000202DE9F04115460E460446002700F0E7F872
S12343E0A84215D3002341200FE000BF94F84220A25CF25494F84210491CB1FBF0F200FBB7
S123440012115B1C84F84210DBB2AB42EED3012700F0D9F83846BDE8F081704910B580205A
S123442081F800046E49002081F8420081F84100433181F8420081F84100433181F8420097
S123444081F841006748FFF765FB6648401CFFF761FBFFF7CDFABDE8104000F0B4B84020CF
S123446070475F4800F0A3B80A4601465C48AFE7402070475A48433000F099B80A460146BA
S123448057484330A4E7402101700020704710B504465348863000F08AF82070002010BD83
S12344A00A4601464E4810B58630FFF791FF08B1002010BD42F2070010BD70B50C4605465A
S12344C0412900D9FFDF48480068103840B200F050F8C6B20D2000F04CF8C0B2864203D265
S12344E0FFDF01E0FFF7D4FA224629463C48FFF76FFF0028F6D070BD2DE9F041394F002567
S123450006463F1D57F82540204600F041F810B36D1CEDB2032DF5D33148433000F038F8BD
S1234520002825D02E4800F033F8002820D02C48863000F02DF800281AD0FFF77FFA294880
S1234540FFF7F0FAB0F5005F00D0FFDFBDE8F0412448FFF7FDBA94F841004121265414F821
S1234560410F401CB0FBF1F201FB12002070D3E751E7002804DB00F1E02090F8000405E004
S123458000F00F0000F1E02090F8140D4009704710F8411F4122491CB1FBF2F302FB13119C
S12345A04078814201D1012070470020704710F8411F4078814201D3081A02E0C0F141004E
S12345C00844C0B2704710B50648FFF7ABFA002803D1BDE81040FFF71CBA10BD0DE000E05D
S12345E04C0400206C00002004ED00E04FF0E0214FF00070C1F8800101F5C071BFF34F8F0A
S1234600BFF36F8FC1F80001384B802283F8002441F8800C704700B502460620344903E069
S123462001EBC0031B792BB1401EC0B2F8D2FFDFFF2000BD41F8302001EBC00100224A71F0
S12346408A7101220A7100BD294A002102EBC0000171704710B50446062800D3FFDF24483C
S123466000EBC4042079012800D0FFDF6079A179401CC0B2814200D060714FF0E0214FF06F
S12346800070C1F8000210BD2DE9F0411948056818491948083108601448062690F8000492
S12346A0134F4009154C042818D0FFDF16E0217807EBC1000279012A08D1427983799A42A4
S12346C004D04279827157F8310080472078401CC0B22070062801D300202070761EF6B229
S12346E0E5D20448001D0560BDE8F08119E000E01805002010050240010000017C00002010
S123470070B5154D2878401CC4B26878844202D000F0D7FA2C7070BD2DE9F0410E4C4FF0BA
S1234720E02600BF00F0C2FA20BF40BF20BF677820786070D6F80052FEF7A0FA854305D1B3
S1234740D6F8040210B92078B842EBD000F0A9FA0020BDE8F08100007D0000202DE9F041BE
S1234760012528034FF0E0210026C1F88001BFF34F8FBFF36F8F1F4CC4F800610C2000F060
S12347802CF81D4801680268C94341F3001142F010020260C4F804532560491C00E020BF06
S12347A0D4F80021002AFAD019B9016821F010010160124807686560C4F80853C4F8006194
S12347C00C2000F00AF83846BDE8F08110B50446FFF7C4FF2060002010BD002809DB00F0F2
S12347E01F02012191404009800000F1E020C0F88012704700C0004010ED00E008C50040FC
S12348002DE9F047FF4C0646FF21A06800EB061211702178FF2910D04FF0080909EB01110D
S123482009EB06174158C05900F0F4F9002807DDA168207801EB061108702670BDE8F087FA
S123484094F8008045460DE0A06809EB05114158C05900F0DFF9002806DCA068A84600EB59
S123486008100578FF2DEFD1A06800EB061100EB08100D700670E1E7F0B5E24B04460020AF
S123488001259A680C269B780CE000BF05EB0017D75DA74204D106EB0017D7598F4204D026
S12348A0401CC0B28342F1D8FF20F0BD70B501F039FED44C08252278A16805EB02128958AA
S12348C000F0A8F9012808DD2178A06805EB01114058BDE8704001F01CBE01F08CFCBDE8BC
S12348E07040FFF7B7BE2DE9F041C64C257801F019FEFF2D6ED04FF00808A26808EB0516CA
S1234900915900F087F90228A06801DD80595DE000EB051109782170022101EB0511425C3D
S12349205AB1521E4254815901F5800121F07F4181512846FFF764FF34E00423012203EB5B
S1234940051302EB051250F803C0875CBCF1000F10D0BCF5007F10D9CCF3080250F806C0BD
S12349600CEB423C2CF07F4C40F806C0C3589A1A520A09E0FF2181540AE0825902EB4C32A0
S123498022F07F428251002242542846FFF738FF0C21A06801EB05114158E06850F8272073
S12349A0384690472078FF2814D001F0BBFD2278A16808EB02124546895800F02BF90128FF
S12349C093DD2178A06805EB01114058BDE8F04101F09FBDBDE8F081F0B51D4614460E4639
S12349E00746FF2B00D3FFDFA00700D0FFDF8548FF210022C0E90247C57006710170427066
S1234A0082701046012204E002EB0013401CE154C0B2A842F8D3F0BD70B57A4C06466578CA
S1234A202079854200D3FFDFE06840F825606078401C6070284670BD2DE9FF5F1D468B4615
S1234A400746FF2401F06EFDDFF8B891064699F80100B84200D8FFDF00214FF001084FF030
S1234A600C0A99F80220D9F808000EE008EB0113C35CFF2B0ED0BB4205D10AEB011350F850
S1234A8003C0DC450CD0491CC9B28A42EED8FF2C02D00DE00C46F6E799F803108A4203D183
S1234AA0FF2004B0BDE8F09F1446521C89F8022008EB04110AEB0412475440F802B00421C3
S1234AC0029B0022012B01EB04110CD040F801204FF4007808234FF0020C454513D9E9051A
S1234AE0C90D02D002E04550F2E7414606EB413203EB041322F07F42C250691A0CEB041255
S1234B00490A81540BE005B9012506EB453103EB041321F07F41C1500CEB0411425499F819
S1234B2000502046FFF76CFE99F80000A84201D0FFF7BCFE3846B4E770B50C46054601F093
S1234B40F1FC064621462846FFF796FE0446FF281AD02C4D082101EB0411A868415830469C
S1234B6000F058F800F58050C11700EBD14040130221AA6801EB0411515C09B100EB41201C
S1234B80002800DC012070BD002070BD2DE9F04788468146FFF770FE0746FF281BD0194D67
S1234BA02E78A8683146344605E0BC4206D0264600EB06121478FF2CF7D10CE0FF2C0AD0B2
S1234BC0A6420CD100EB011000782870FF2804D0FFF76CFE03E0002030E601F0A0FC414678
S1234BE04846FFF7A9FF0123A968024603EB0413FF20C854A878401EB84200D1A87001EB7B
S1234C00041001E04805002001EB061100780870104613E6081A0002C11700EB1160001282
S1234C207047000010B5202000F07FF8202000F08DF84D49202081F80004FEF71DF84B49A7
S1234C4008604B48D0F8041341F00101C0F80413D0F8041341F08071C0F8041342490120F8
S1234C601C39C1F8000110BD10B5202000F05DF83E480021C8380160001D01603D4A481E97
S1234C8010603B4AC2F80803384B1960C2F80001C2F8600138490860BDE81040202000F076
S1234CA055B834493548091F0860704731493348086070472D48C8380160001D521E0260C9
S1234CC070472C4901200860BFF34F8F70472DE9F0412849D0F8188028480860244CD4F8A8
S1234CE000010025244E6F1E28B1404600F09CF840B9002111E0D4F8600198B1404600F0B1
S1234D0093F848B1C4F80051C4F860513760BDE8F041202000F01AB831684046BDE8F0412D
S1234D202AF066B9FFDFBDE8F08100280DDB00F01F02012191404009800000F1E020C0F8BC
S1234D408011BFF34F8FBFF36F8F7047002809DB00F01F02012191404009800000F1E020FD
S1234D60C0F880127047000020E000E0C80602400000024018050240000402400100000155
S1234D804FF08050D0F830010A2801D0002070470120704700B5FFF7F3FF20B14FF08050D8
S1234DA0D0F8340108B1002000BD012000BD4FF08050D0F83011062905D0D0F83001401C0D
S1234DC001D000207047012070474FF08050D0F83001082801D0002070470120704700B5E2
S1234DE0FFF7E5FF48B14FF08050D0F83411062905D3D0F83401401C01D0002000BD012091
S1234E0000BD00B5FFF7D3FF58B14FF08050D0F83411062905D3D0F83401401C01D00120DD
S1234E2000BD002000BD00003249884201D2012070470020704770B50446A0F500002E4E8D
S1234E40B0F1786F02D23444A4F500042948844201D2012500E0002500F043F848B125B9A6
S1234E60B44204D32548006808E0012070BD002070BD002DF9D1B442F9D321488442F6D259
S1234E80F3E710B50446A0F50000B0F1786F03D219480444A4F5000400F023F84FF08041E2
S1234EA030B11648006804E08C4204D2012003E013488442F8D2002080F0010010BD10B5AD
S1234EC020B1FFF7DEFF08B1012010BD002010BD10B520B1FFF7AFFF08B1012010BD002095
S1234EE010BD084808490068884201D10120704700207047001003000000002090000020AA
S1234F00080000202C010020BEBAFECA2DE9F04190460C4607460025FE48072F00EB8816F2
S1234F2007D2DFE807F00707070704040400012500E0FFDF06F81470002D08BFBDE8F0813E
S1234F40F54800EB880090F8271020290EBF80F8264006EB41014C70202106EB44025170C2
S1234F6080F82740BDE8F08130B50D46EB4A44190021101A71EB010038BFFFDFE8488542FA
S1234F80C8BFFFDFE7488542B8BFFFDFE6488442A8BFE64804DA002CAABF2046E24830BDE4
S1234FA0201830BD2DE9F05FDB4D95F82D6005EB860090F82640202C08BFBDE8F09FDFF89F
S1234FC070A3DFF85093A9F5007B09EB8618072718F8140001280AD0042808BF022706D00E
S1234FE0052808BF032702D0062818BFFFDFBAF1000F18BFAFF30080EFF3108000F00100C4
S123500072B608EB44014A7805EB860181F8262091F82720A24204BF202281F82720A0B16A
S1235020324621460120FFF771FF0BEB0410394602682046904795F82D6005EB860090F8BE
S12350402640202CC1D1BDE8F09FBA48002818BFAFF3008062B6E3E710B5AF4C202184F852
S1235060251084F8261084F82710002084F8280084F82D0084F82E10411EA160206084F80F
S1235080200084F8210020776077A077AA4984F82F0084F8240008704870A4F18201102212
S12350A0887001F8040F521EFAD1012001F044FD002001F041FD012084F82200FFF796FAC6
S12350C09E48FFF7A8FA9E4C20709E48FFF7A3FA6070BDE8104001F0BDBC10B501F0EBFC8F
S12350E0974C2078FFF7B0FA6078FFF7ADFA8A4C94F82400002808BF10BDFDF7C0FF002007
S123510084F8240010BD202070472DE9F04F8146814889B000EB8908A0F5207798F825505C
S1235120202D3CD02C4601F0B4FD07EB0412864E51689268091A101A21F07F4120F07F4082
S1235140012904D3B1F5800F01D286421BD2714800EB891BA2460BEB4A004478202C12D033
S123516001F097FD07EB04114A688968121A081A22F07F4220F07F40012AEBD3B2F5800FED
S1235180E8D28642E6D3AC4209D04B4652462021042001F051FB09B00020BDE8F08F6B488E
S12351A0002818BFAFF3008001F073FD5A4C94F82F1069B1E168421C511A0902CA1701EBF4
S12351C0126109120029C2BF002009B0BDE8F08F0646CDF8208098F82500202835D04FF0A4
S12351E000084FF0FF3107EB001BCDF800800291DBE90101DBF80C200592CDE9030154489D
S1235200B0F89C12ADF81C1090F89E028DF81E009DF8150000280CBF4FF0040A4FF0020A63
S12352204C4951F82070039907EB0A02114421F07F410191002F14BF022100218DF81810B7
S1235240022818BF012815D035E04FF0010001F073FC002001F070FC01F054FC94F8240018
S123526020B1FDF70CFF002084F82400002084F82F00D2E003989DF81C103844801B801C0E
S123528020F07F40002918BF0221353181420BD203208DF815000398C7F13201401A20F065
S12352A07F403227039012E094F8240018B9FEF754FB00287DD0322F09D247B194F824002F
S12352C060B9FDF7B3FE012084F8240006E094F8240018B1FDF7D3FE84F82480164A11781E
S12352E0B9B152780020D21B9DF818C0039F012916BF0329012300238DF81E30002A04DD0A
S1235300BA1A039201228DF818209DF81C20002A22E045E058070020D8070020FF7F841E80
S12353200020A10700E05EF80080841E00807BE1000000000000000081000020E74800009D
S12353407F000020A54F0000FFFF3F000000000058050020F0F2020018BF0220039ADDF8AD
S123536010E022F07F420392921BFB4B22F07F42AEEB060626F07F46904298BFB2F5800F2C
S123538001D2B3420CD29DF81D00002808BF032947D08DF81C8003978DF818C08DF81E8044
S12353A09DF8180060B103984FF0010300EB0A0100E036E04FF00002184601F006FC02E0ED
S12353C0012001F0B9FB9BF90C2001230020019901F0FBFB9BF80F0010F0010F18BF01F004
S12353E025FD012084F82F00089880F828809DE80E10DA48C0F88012C0F88422C0F888321C
S1235400C0F88CC204AD95E80E10C0F89012C0F89422C0F89832C0F89CC209B00120BDE857
S1235420F08F4B462A462021042001F005FA09B00020BDE8F08F2DE9F041C94C256901F0BB
S123544028FC401B0002C11700EB1160001258BFFFDF94F82200002818BFFFDF012784F85D
S1235460227094F82E00202808BFFFDF94F82E60202084F82E00002584F82F5084F82050DF
S123548084F82150B74825600078022816BF0328012000202077A068B0F1FF3F05D04FF022
S12354A0FF30A060012001F047FB002001F044FB01F078FC01F06DFC01F024FBFEF738FD1C
S12354C0A948056005604FF0E0214FF40040C1F8800201F0EEFC94F82D804046FFF715FE6C
S12354E00028FAD0A14800EB881010F81600022804D1424631460620FFF708FD84F82370FE
S123550004EB880090F82600202803D098484078FFF7A0F8207F002808BFBDE8F08101F08C
S12355202AFC25776577BDE8F08103468C4810B590F82D200024803800EB821010F8141077
S123554029B1611CCCB2202CF8D3202010BD8348002100EB04100360C17321460120FFF74E
S1235560D5FC204610BD012804D0032808BF002934D000E079B37A4A92F82D30DFF8ECC1CC
S12355804FF000020CEB831313F812C0BCF1000F01D008207047521CD2B2202AF4D3714A32
S12355A0002812BF0228002151700BD0072915D2DFE801F01404060B0D0F12001B2100E0C5
S12355C03A2151701070002070475821F9E77721F7E79621F5E701E0B521F2E70720704784
S12355E0604810B5407801F0F2FB80B210BD10B5202811D25A4991F82D30A1F1800202EB2B
S1235600831C1CF810303BB191F82D3002EB831212F81020012A01D0002010BD91F82D2046
S123562001460020FFF772FC012010BD10B501F030FBBDE8104001F0CABB2DE9F04F484A7A
S123564082B002EB810B20239BF825204FF0000A6E4601AF8DF80030202A08BF8DF8043054
S123566000F02281DFF804C1DFF808E10CEB8118ACF5007404EB021303F1040C9B6805681A
S1235680EB1A1B024FEAE37903EB19631B1223D4437ACBB19CF80990B9F1000F14D15EF867
S12356A02330DCF800C02B44DEF800509B1CAC440CF1040CA3EB0C031B024FEAE37C03EB76
S12356C01C631B12322B07DB327008EB42025278202ACFD13378A2E033783B70202A7CD035
S12356E004EB0213D0F804C05E681D1DA6EB0C0C4FEA0C2C4FEAEC790CEB196C5FEA2C2C41
S12357001ED495F809C0BCF1000F66D0457A002D63D15EF82CC00568B444DEF800600CF151
S1235720020C35442D1DACEB050C4FEA0C2C4FEAEC750CEB156C4FEA2C2CBCF1320F4CDAC4
S12357403A709B7B90F80AC0634515D908EB42025278202AC4D1A7E0FFFF3F00580500207C
S1235760D80700208100002000F50040580700207F000020F0F202009DF80420D0E900C319
S123578004EB0212A3EB0C0392684FF0010A22F07F4C1A4422F07F42C0E900C29BF82520D0
S12357A02023E8468DF80030202A1CBFF94B03EB81163CD004EB021303F1040C9B6805684D
S12357C0EB1A1B024FEAE37903EB19631B1228D4437ADBB19CF8099000E065E0B9F1000F27
S12357E014D15EF82330DCF800C02B44DEF800509B1CAC440CF1040CA3EB0C031B024FEA47
S1235800E37C03EB1C631B12322B0ADB88F8002006EB42025278202ACCD198F800303B7058
S123582042E098F800303B70202A04D13CE0DBB28DF8043038E004EB02154368D5F804803C
S123584005F1040CA8EB03031B024FEAE37903EB19631B121CD49CF809302BB390F809C070
S1235860BCF1000F20D15EF82330D0F800C04344DEF800809B1CC4440CF1040CA3EB0C0300
S12358801B024FEAE37C03EB1C631B12322B0BDA3A70AB7B90F80AC063457FF66DAF06EB27
S12358A042025278202AC6D102B05046BDE8F08F70B5B949B94A01EB001454F8041F607A16
S12358C0002852F8202011440CBF04200220084420F07F4001F07BFA94F90850B04A4419EF
S12358E00021101A71EB010038BFFFDFAD488542C8BFFFDFAC488542B8BFFFDFAB4884423D
S1235900A8BFAB4803DA002CB8BFA84800DA2418204670BD2DE9F04F0446A64887B00068E4
S1235920C005C00D11D0103840B20028B8BF00F00F0000F1E020ACBF90F8000490F8140D87
S1235940400908BF4FF0010B01D04FF0000B2078002804BF984D994E40F0D78026B10021FF
S123596040F2D640AFF3008095F82D70002085F82300824626B1002140F2DB40AFF30080A0
S1235980BBF1000F1FD1B846012020EA08078148402200EB881100EB871029F060FA26B1A5
S12359A0002140F25F40AFF3008005EB880105EB8700D1F82510C0F8251026B1002140F2CA
S12359C06340AFF3008026B1002140F2E340AFF3008001F05EF98046CDF80CD02078002820
S12359E060798DF80A0020798DF8090007D095F82E0020281CBF2869401D07D00BE0D4E9F2
S1235A0002232179039800F0DAFF3AE06C4808F105014078084420F07F4921790022A368EF
S1235A20039800F0CCFFDDE90010401A484420F07F400190CDF80090D4E90232217904A864
S1235A4000F0BDFF3946DDF814900398FFF7F5FD00980199A0EB080020F07F40A1EB0801F2
S1235A6021F07F41B0F5800F01D2894509D2DDE90010401A404428F07F4120F07F40CDE990
S1235A80001026B1002140F2E940AFF3008095F82E00202814D028690099091A0902CA175D
S1235AA001EB126109120BD5DDE90021891A20F07F42084420F07F40CDE900204FF0010AF2
S1235AC026B1002140F2F340AFF3008095F8230000287FF443AF26B1002140F2F940AFF301
S1235AE0008001F0D6F80099019B091A181A354A21F07F4120F07F40B1F5800F05D28242EA
S1235B0003D3BBF1000F0AD103E007B00020BDE8F08F39466846FFF790FD4AEA000ABAF19E
S1235B20000F2CD09DF809001C4A0099002852F8202011440CBF04200220084420F07F4086
S1235B4001F045F99DF90870154AC5190021101A71EB010038BFFFDF12488742C8BFFFDFC2
S1235B6011488742B8BFFFDF10488542A8BF104803DA002DB8BF0D4800DA2D18A56026B1FB
S1235B80002140F20C50AFF3008007B00120BDE8F08F00005807002058050020F0F2020054
S1235BA0FF7F841E0020A10700E05EF80080841E00807BE104ED00E0D807002000000000F5
S1235BC081000020FFFF3F002DE9F34FF94891B088460068F84DC005C00D0ED0103840B2E4
S1235BE00028B8BF00F00F0000F1E020ACBF90F8000490F8140D40092AD098F800004FF060
S1235C00000B00281CBF0128FFDFEC4C2CB14FF0000140F28250AFF30080E94911984FF0D6
S1235C20010A01EB0010039024B1002140F28A50AFF30080BAF1000F17D000BF95F82D6028
S1235C404FF0000985F82390BBF1000F14D03DE095F82E004FF0010B202808BFFFDF98F889
S1235C600000002818BFFFDFCFE7D648002818BFAFF3008062B6E1E73746012020EA0706B9
S1235C80D148402200EB871100EB861029F0E7F824B1002140F25F40AFF3008005EB870128
S1235CA005EB8600D1F82510C0F8251024B1002140F26340AFF3008024B1002140F2945086
S1235CC0AFF3008095F823000028ADD124B1002140F29E50AFF3008000F0DBFF0746CDF834
S1235CE010D098F80000002898F805008DF80A0098F804008DF8090007D095F82E002028E8
S1235D001CBF2869401D08D00BE0D8E9022398F80410049800F053FE3AE0AC484178781D30
S1235D20084420F07F4A98F804100022D8F80830049800F044FEDDE90010401A504420F0CA
S1235D407F400190CDF800A0D8E9023298F804100CA800F034FE3146DDF834A00498FFF769
S1235D606CFC0099019AC91BD01B21F07F4120F07F40B1F5800F01D2824509D21046009A7A
S1235D80801A384427F07F4220F07F40CDE900200398C07B00F001008DF80B0024B100211F
S1235DA04FF4B560AFF30080874A3946DDF844A002EB8617684617F81A20012A18BF022AAD
S1235DC03ED1009ADDF804C0A2EB0102804B22F07F42ACEB010121F07F41012A6BD3B2F5D5
S1235DE0800F68D28B4266D34FF001090DAB0CAA314600F05DFD002865D09DF834209DF87D
S1235E0030108A4263D03346052000F015FD00BF07EB4A0148709DF83000202803BF05EB2C
S1235E20860080F825A080F8289007EB400018BF80F801A0324651465FF00300FFF766F894
S1235E4005EB860090F8287024B1002140F2AF50AFF300805F48002818BFAFF30080EFF3B5
S1235E60108000F0010A72B624B1002140F2B550AFF3008095F8230000287FF4D5AE24B179
S1235E80002140F2BD50AFF300809DE80F00B9F1000FDA60C3E9010140D024B1002140F20F
S1235EA0CA50AFF3008037EA0B0029D095F82E00202816D024E0324651460420FFF726F849
S1235EC04FF00109BCE7324651460420B6E7202919BF07EB4100407805EB860090F82500D3
S1235EE096E724B1002140F2CF50AFF300803046FFF70BF920B998F80000E8B3012849D002
S1235F0024B1002140F2EC50AFF3008085F82D60012085F8230000BF4FF0010924B100212E
S1235F2040F2F550AFF30080BAF1000F3BD024B1002140F2F950AFF30080B9F1000F11D0D2
S1235F4095F82D0005EB800090F82600202809D024B100214FF4C060AFF300801E484078AB
S1235F60FEF778FB24B1002140F20560AFF3008013B04846BDE8F08FFFE724B1002140F283
S1235F80D750AFF3008095F82D2004201199FEF7BDFFC1E7002C3FF447AE002140F2E250DA
S1235FA0AFF3008040E60748002818BFAFF3008062B6BCE704ED00E0D8070020000000009A
S1235FC058050020000000005807002081000020FFFF3F00000000007F0000202DE9F14FEE
S1235FE0F84D8CB095F82D00002009900120F64CA5F180074FF0000B8246089024B1002189
S123600040F21360AFF300800898A0B385F823B024B100214FF4C360AFF3008095F82D80BA
S123602040222AEA080607EB861007EB8811814628F015FF24B1002140F25F40AFF30080E9
S123604005EB860005EB88010090D1F82510C0F8251024B1002140F26340AFF3008095F858
S1236060230080B1002C1CBF002140F21E60C5D0AFF30080C2E7FFE7D448002818BFAFF3ED
S1236080008062B6C2E724B1002140F22260AFF300800C9819F8100003286DD1DDF800806C
S12360A0CDF818800C9998F82500884214BF4FF000094FF0010908F1250C8646202207EBCD
S12360C0861303E0024603EB42004078884202D020280AD0F6E7202807D0864507D103EBC5
S12360E04E0040788CF8000007E058460CE003EB400003EB42014078487024B1002140F2AA
S1236100E530AFF30080504610EA090F1CBF88F828A085F81EB078B324B1002140F2276054
S1236120AFF30080324601200C99FEF7EFFE069890F8288024B1002140F23260AFF300806F
S1236140A348002818BFAFF30080EFF3108000F0010072B6089024B1002140F23760AFF3AB
S1236160008095F8230040B1002C1CBF002140F23B603FF443AF7BE716E0B8F1000F07D0F9
S123618095F82E00202803D13046FEF7BEFFE8B124B1002140F24F60AFF3008085F82D6060
S12361A085F823A00120099024B100214FF4CB60AFF30080089888B124B1002140F25C609E
S12361C0AFF3008009980DB0BDE8F08F002CF1D0002140F24A60AFF30080E6E77B48002853
S12361E018BFAFF3008062B6E6E7002000F094BC012000F091BC7748007870472DE9F05FAC
S1236200DFF8D4B10027ABF50079012509F5207480B1012853D0022800F0E48003281CBF25
S1236220FFDFBDE8F09F94F82E00202840F0FE8000F0DEB894F8240018B9FCF7F7FE84F82D
S1236240245094F82E0020281CD194F82D8004EB880A9AF82560202E08BFFFDF0BEB881085
S123626000EB460040788AF825008AF8285084F82350314684F82E6042460220FEF746FE3D
S123628084F82270207E002818BFFFDF84F82150002000F051FCA168B1F1FF3F04D0012346
S12362A00022184600F091FC94F82E0094F82E1009EB01110A68BDE8F05F0121104794F8E8
S12362C02E0020281CD194F82D8004EB880A9AF82560202E08BFFFDF0BEB881000EB4600D4
S12362E040788AF825008AF8285084F82350314684F82E6042460220FEF708FE84F822701E
S1236300012000F019FC94F8210000281CBFA068B0F1FF3F0BD094F82E0094F82E1009EB69
S123632001110A68BDE8F05F4FF006011047207E2A4E01280AD002281CBFFFDFBDE8F09F14
S123634084F8205094F8240010BB1DE0A77700F012FD3078032804BF65772577607D204964
S123636051F8200094F8201059B950B161680123091A0022184600F028FC02202076BDE8E0
S1236380F09F2776BDE8F09FFCF750FE84F82450A07F002808BF277608D071786068012310
S12363A0411A0022184600F010FC257694F82E0094F82E1009EB01110A68BDE8F05F002156
S12363C010470000D80700200000000000000000000000007F0000205807002081000020A4
S12363E0F0F20200FE480078BDE8F05FFEF732B994F82D8004EB880A9AF82560202E08BF3D
S1236400FFDF0BEB881000EB460040788AF825008AF8285084F8235084F82E60424631468A
S12364200220FEF773FD84F8227000BF94F82E0094F82E1009EB01110A68BDE8F05F0521EE
S1236440104710B5E74C94F82E00202808BFFFDF94F82E0094F82E10E34A02EB01110A6820
S1236460BDE810400421104730B5DE4C054683B094F82E00202808BFFFDFA068B0F1FF3F8C
S123648018BFFFDF94F82E0001AAD74901EB0010694690F90C00284400F0A6FC9DF90400E6
S12364A00F28CCBF01200020009908446168084420F07F41A16094F82100002804BF03B0BF
S12364C030BD012303B00022BDE83040184600F07CBBC64A0B1A02F1010CB3EB9C0F3CBFBF
S12364E01846704710B5441AB4EB9C0F3CBF184610BD9A4203D2101A0844401C10BD9442CA
S12365009EBFFFDF002010BD511A0844401C404210BD012300220146022000F056BB02201B
S123652000F00ABB00F0B5BB2DE9F043AD4C054683B094F82E00202808BFFFDF642D57D320
S1236540AB490020491B804152D394F82E00DFF8988294F82D7008EB0019206801AA28445A
S1236560694600F041FC9DF90400002802DD0098401C0090D9F808000099D9F80420461851
S1236580B21A22F07F42B2F5800F31D204EB870292F82520202A0AD008EB02125268101AC9
S12365A00002C21700EB12600012884220DBA068B0F1FF3F10D000F06CFBA168081A00027D
S12365C0C11700EB11600012022811DD012000F0B3FA4FF0FF30A06020682844206026F0A3
S12365E07F402061012084F8230003B0BDE8F08303B00020BDE8F0832DE9F05F794D8046F0
S123660095F82D00A5F1800707EB801010F81800002808BFFFDF95F82D90764E26B100212A
S123662040F66F00AFF3008007EB891414F81800012817D0C0B204281CBF052806284FD0D9
S12366402EB14FF0000140F67B00AFF3008020BF26B1002140F68400AFF3008014F818006D
S12366600128E7D1012426B1002140F68B00AFF30080A4B3002085F8230026B100214FF4E3
S12366800960AFF3008095F82DB0012020EA0B0907EB8B1107EB8910402228F0E0FB26B17D
S12366A0002140F25F40AFF3008005EB8B0005EB890AD0F82500CAF8250026B1002140F2C6
S12366C06340AFF3008095F82300B0B1002E1CBF002140F69600C6D0AFF30080C3E705E0A3
S12366E04A4641460120FEF711FCB1E74248002818BFAFF3008062B6BCE726B1002140F630
S12367009A00AFF300809AF826300AF1260140461C464FF0200B07EB89120AF1270A04E0C0
S1236720A34602EB4B0C9CF80140844202D0202C2BD0F5E7202C28D0A34204D102EB43006A
S12367404078087005E002EB440002EB4B0140784870BAF1000F11D026B1002140F2DD3074
S1236760AFF300809AF80000A04207D126B100214FF47870AFF300808AF800B05EB1002100
S123678040F2E530AFF3008000E026B1002140F69E00AFF300801948002818BFAFF300803C
S12367A0EFF3108000F0010472B695F8230038B1002E1CBF002140F6A4003FF454AF8BE701
S12367C085F82D90012085F82300DCB1002E08BFBDE8F09F002140F6B100AFF300800FE0EB
S12367E07F000020D807002058050020FF7F841EFF1FA10700000000000000000000000094
S1236800BDE8F09F8E48002818BFAFF3008062B6DCE730B504468B480D4690F82D008A4991
S123682001EB801010F81400002808BFFFDF874800EB0410C57330BDF0B51F4614460E4644
S12368400546202A08BFFFDF7F487E4900EB871202EB440001EB8703202E23D002EB4601CC
S1236860407891F801C0487020216046202C06D0014602EB4100A14205704078F8D193F878
S12368802740202C1ABF02EB440484F801C083F826C04FF0200C02EB410282F801C083F844
S12368A02710F0BD93F825C0407883F82500DBE72DE9F003DFF88CC120250CEB810C9CF8DC
S12368C025C01570BCF1200F08BF1D7073D05F4C5F4E04F5007505EB811700BF04EB0C11BE
S12368E00D1D8968D0F80080A8EB010109024FEAE17901EB1961091223D4417AA9B195F8E4
S12369000990B9F1000F10D156F821102D684144D6F80080891C45442D1D491B0902CD178E
S123692001EB1561091232290BDB07EB4C0182F800C091F801C0BCF1200FCFD115781D703C
S123694039E015781D70BCF1200F34D004EB0C124568D2F80480111DA8EB05052D024FEAE5
S1236960E57905EB19652D1214D4497A19B3457A0DBB56F8211005684144D6F80080891CA6
S123698045442D1D491B0902CD1701EB15610912322910DA83F800C0917B827A914203D81A
S12369A0BDE8F0030020704707EB4C0191F801C0BCF1200FCAD1BDE8F0030120704770B5CF
S12369C01D4613460E46044600F10802014682B0184600F009FA94F908000F2804DD1F3890
S12369E020722068401C2060002E0CBF04200220174951F82610461820686946801B20F03F
S1236A007F40206094F908002844C01C1F28B8BF012009DB01AA00F0E7F99DF80400002857
S1236A201CBF0098401C00D000900099206831440844C01C20F07F40606002B070BD0000F7
S1236A4000000000D80700205807002058050020F0F2020010B44FF0E0224FF400634FF069
S1236A60010C0021C2F8803102F5C072BFF34F8FBFF36F8FDC101460BFF34F8FBFF36F8F70
S1236A80ED4880F80014C01E80F80014EB48C0F804C0C0F808C0C0F84011C0F84411C0F8CA
S1236AA04811C2F80031C2F8004142F8803CC0F800C010BC704730B401204FF0E022C50295
S1236AC04FF0000CC2F88051BFF34F8FBFF36F8F0402C2F88041BFF34F8FBFF36F8FD74BB9
S1236AE058609860D64801680029FCD1C3F840C1C3F844C1C3F848C1C2F88052C2F880421D
S1236B0030BC70474FF0E0204FF40061C0F88012C910C0F880127047002804BFC948704714
S1236B20012804BFC8487047022804BFC748704700B5FFDF002000BD08B5C049002298B14A
S1236B40012834D002281CBFFFDF08BD4FF48020C1F80803C1F84803BD480260C1F8482128
S1236B60BA480068009008BD4FF48030C1F80803C1F84803B74B1A60C1F84021B64BC1033C
S1236B801960B649C1F80803B5480260C1F840214FF0E0238015C3F88001C431BFF34F8FA4
S1236BA0BFF36F8FC1F83C21AE48027008BD4FF40030C1F80803C1F84803AB480260C1F895
S1236BC04421A1480068009008BD70B5DFF86CC2042600240125B0B1012849D002281CBF60
S1236BE0FFDF70BDA14A4FF48020012BC2F8401518BFCCF80803C2F8404108BFCCF804030A
S1236C00CCF8440370BD881E20F07F40CCF840054FF48030CCF80803CCF84041CCF84403A8
S1236C20012B18BF00238F494B708C4B1D61DFF840C2CCF800408F4C4FF0020CC4F800C0C1
S1236C40DFF834C2CCF80060DFF814C23D32CCF800204A604FF0E02C9A15CCF88022C3F87A
S1236C600403CCF80021D005844A10600D7070BD83484FF40032012BC0F8401518BFCCF853
S1236C800823C0F8404108BFCCF80423CCF8442370BD6B480068704770B57A4805687B4998
S1236CA079480860654CD4F84001002601280AD1D4F8080310F4803F05D04FF48030C4F8A1
S1236CC00803C4F84061D4F8440101280DD1D4F8080310F4003F08D04FF40030C4F8080304
S1236CE0C4F844610120FFF789FAD4F8480101280DD1D4F8080310F4802F08D04FF4802034
S1236D00C4F80803C4F848610220FFF777FA6048056070BD5B4810B504685C495A480860FD
S1236D2050490878002808BF03201FD04A4A4FF000401060494AC00BC2F80803484B0020DC
S1236D401860C2F840014FF0E02C9315CCF88031C432BFF34F8FBFF36F8FC2F83C010870AF
S1236D604A78002A1CBF4870002001D0FFF746FA4748046010BD4FF0E0214FF40010C1F85D
S1236D80000270474FF0E0214FF40010C1F8800270473249012008614FF0E0210002C1F8B1
S1236DA0800270472D494FF47C10C1F8080300200146820002F1804202F50042C2F84015A7
S1236DC0C2F84011401CC0B20628F2D37047410A43F609525143C0F3080010FB02F000F50C
S1236DE0807001EB50207047430B48F2376C03FB0CF31B0C4FEA432CC1F800C0DFF894C0F1
S1236E0003FB0C0324484CF2F72C5843400D10FB0CFC0CEB432303F580735B1213700A68EF
S1236E201044086070470F48406870470B490120C1F80002704700000BE000E000B0004083
S1236E4004B500404081004044B1004048B1004048B5004040B5004008F501400080004056
S1236E60408500408400002044B5004008B0004004850040088500401085004004F501408F
S1236E8004B0004010050240010000011805024014050240F7C2FFFF6F0C0100094810B59E
S1236EA004680A4908480860FFF7CBFA0848046010BD0849002008604FF0E0210220C1F827
S1236EC08002704710050240010000011805024014050240FC1F004038B50C468288817BC2
S1236EE019B14189914200D90A462280C188121D90B26A4619F0FBFBBDF80000032800D340
S1236F000320C1B2208801F011F838BD38B50C468288817B19B10189914200D90A46228009
S1236F20C188121D90B26A4619F0E1FBBDF80000022800D30220C1B2208800F0F7FF401CCD
S1236F40C0B238BD2DE9FE4F82468B46F94814460BF10302D0E90010CDE9011022F0030287
S1236F6068464FF4907100921BF0FBFFF24E002C02D1F24A00999160009901440091357F5C
